:0400000002001132B7
:03000B0002006D83
:03006A0002000E83
:03000E0002045891
:20006D00C0E0C082C083C007C0D075D000758A229000ABE0FFBF0600401B9000A7E024011B
:20008D00F0A3E03400F0A3E03400F0A3E03400F09000ABE4F09000ABE02401F0D0D0D007B8
:2000AD00D083D082D0E032E58290004BF0E0900009F090000A7401F022E582900054F0E0D5
:2000CD00900009F090000A7401F090000B740CF090004CE0FCA3E0FDA3E0FEA3E0FF9000B5
:2000ED000CECF0EDA3F0EEA3F0EFA3F09000107404F0900050E0FCA3E0FDA3E0FEA3E0FF41
:20010D00900011ECF0EDA3F0EEA3F0EFA3F022900088E4F0A3F0A3F090008BF0A3F0900070
:20012D008D04F07582E11207C1900088E4F0A3F0A3F090008BF0A3F090008D04F07582E2E5
:20014D001207C1020A68E58290005CF0C2E890005D740EF0900074745DF07400A3F0E4A3A5
:20016D00F090007704F0E4A3F07582001206C412011C90005CE0FF9000A2F0900080740598
:20018D00F0E4A3F09000A275F000C00712074BD0079000A2EFF090007A7405F0E4A3F090C7
:2001AD00007CF09000A275F000C007120702D00790005BE0FE90005AE0FD900057E0FAA382
:2001CD00E0FBA3E0FCEE60047EB080027EA08D017D00900088EAF0EBA3F0ECA3F090008B83
:2001ED00E9F0EDA3F090008DF08E82C0071207C1D007D2E8900004C007120B6690000A12C0
:20020D000B66D007C2E8900088E4F0A3F0A3F090008BF0A3F090008D04F07582FFC007124F
:20022D0007C1AE82D007EE20E504EE30E4D853062090005D740FF0900074745DF07400A35C
:20024D00F0E4A3F090007704F0E4A3F0758200C007C0061206C4D006D0079000A2EFF0900A
:20026D00007A7405F0E4A3F090007CF09000A275F000C00612070212011CD006D2E8900054
:20028D0004C006120B66900082120B66D0068E8222AFF0AE83E58290005FF0EEA3F0EFA33E
:2002AD00F090006375F000120648900063E0FF24DF501F900088E4F0A3F0A3F090008BF028
:2002CD00A3F090008D04F07582E21207C1900063E4F0900063E0FF900062F090005FE0FC74
:2002ED00A3E0FDA3E0FE90006FEFF0E4A3F08C828D838EF0120682120A68900062E0F58298
:20030D002290006474FFF0900088E4F0A3F0A3F090008BF0A3F090008D04F07582FF120787
:20032D00C1E58230E61290002A75F00012029E90002AE0FF900064F0900064E0F58222AFF6
:20034D0083E582900065F0EFA3F09000A7E0FCA3E0FDA3E0FEA3E0FF900065E0F508A3E054
:20036D00F509A808A909E4FAFBE82CF8E93DF9EA3EFAEB3FFBC004C005C006C0079000A778
:20038D00E0FCA3E0FDA3E0FEA3E0FFC3EC98ED99EE9AEF9BD007D006D005D0045015C00790
:2003AD00C006C005C00412030ED004D005D006D00780AF22E582900067F09000A7E0FCA313
:2003CD00E0FDA3E0FEA3E0FF900067E0FB74402CF50A741F3DF50BE43EF50CE43FF50DC0A7
:2003ED0003C00312030EAA82D0039000A7E0F8A3E0F9A3E0FBA3E0FFC3E8950AE9950BEBBF
:20040D00950CEF950DD0035004EAB503D2900067E0FFEAB5070474018001E4F58222E582A8
:20042D00900068F0E0FF9000577409F07400A3F0E4A3F0BFFF03048001E4FE90005A740A86
:20044D00F090005BEEF08F82020153740755ADFFBF070B758201120B52E5AD30E6FB90E0A8
:20046D000C120B1F9000907401F075820012081D12078790006B7401F0900074746BF0742D
:20048D0000A3F0E4A3F090007704F0E4A3F07582011206C490006B7401F0900074746BF0CC
:2004AD007400A3F0E4A3F090007704F0E4A3F07582021206C490006B7403F0900074746B25
:2004CD00F07400A3F0E4A3F090007704F0E4A3F07582031206C490006B7455F0900074742D
:2004ED006BF07400A3F0E4A3F090007704F0E4A3F07582041206C490006B7454F090007416
:20050D00746BF07400A3F0E4A3F090007704F0E4A3F07582051206C490006B7426F0900022
:20052D0074746BF07400A3F0E4A3F090007704F0E4A3F07582061206C490006B7473F09040
:20054D000088746BF07400A3F0E4A3F090008B04F0E4A3F090008DF07582501207C1900075
:20056D006B7401F0900074746BF07400A3F0E4A3F090007704F0E4A3F075821C1206C4905C
:20058D00006B7406F0900074746BF07400A3F0E4A3F090007704F0E4A3F075821D1206C4C6
:2005AD00900092740EF0758200120A11900082120B66D2AFD2A99000857422F0E4A3F0755E
:2005CD00820312078ED28C7582001200B47582FF12042B7582001203C17582011200B47590
:2005ED0082FF12042B7582011203C19000017403F0E4A3F0A3F0A3F09000057409F0740251
:20060D00A3F0E4A3F0A3F090004C7403F0E4A3F0A3F0A3F09000507409F07402A3F0E4A373
:1B062D00F0A3F07582021200C67582FF12042B7582021203C19003E802034C8C
:0A0BFF00FFFCE1A8A80000000000C0
:20064800AFF0AE83E58290006CF0EEA3F0EFA3F090006CE0FDA3E0FEA3E0FF900088EDF09B
:1A066800EEA3F0EFA3F090008B7401F0E4A3F090008D04F07582600207C14C
:20068200AFF0AE83E582900071F0EEA3F0EFA3F0900071E0FDA3E0FEA3E0FF90006FE0FB72
:2006A200A3E0FC900088EDF0EEA3F0EFA3F090008BEBF0ECA3F090008D7401F07582610270
:0206C20007C16E
:2006C400E582900079F0E0FF741F5F4420FF900074E0FCA3E0FDA3E0FE900077E0FAA3E03D
:1E06E400FB900088ECF0EDA3F0EEA3F090008BEAF0EBA3F090008DE4F08F820207C1C9
:20070200AFF0AE83E58290007DF0EEA3F0EFA3F090007CE0FF24FA500122740A2FFF9000E8
:200722007DE0FCA3E0FDA3E0FE90007AE0FAA3E0FB900074ECF0EDA3F0EEA3F0900077EA29
:09074200F0EBA3F08F820206C463
:06004000E478FFF6D8FD94
:20074B00AFF0AE83E582900082F0EEA3F0EFA3F0900082E0FDA3E0FEA3E0FF900080E0FB75
:1C076B00A3E0FC900074EDF0EEA3F0EFA3F0900077EBF0ECA3F07582100206C4DB
:0707870075E80275E8042289
:20001E00790AE94400601B7A01900BFF78A275C900E493F2A308B8000205C9D9F4DAF27580
:02003E00C9FFF8
:20078E00E582900087F0E0FF74035FFEBE020E900085E0FDA3E0FE8D8C8D8A800A9000851A
:1307AE00E0F58AA3E0F58C74F05589FE740F5F4EF58922C5
:2007C100E58290008EF0E0FF90008FF0C2E99000957401F0E4A3F090009704F090008F755A
:2007E100F000120A8C900088E0FDA3E0FEA3E0FF90008BE0FBA3E0FC90008DE0FA900095D7
:1C080100EBF0ECA3F0900097EAF08D828E838FF0120A8CD2E990008FE0F58222E6
:20081D00E582900091F0E0FF24F850030208A0900090E0FE30E04CEE30E11574075FF5F01E
:20083D0005F07401800225E0D5F0FBFD4280801474075FF5F005F07401800225E0D5F0FB27
:20085D00F4FD528074075FFD74075DFC74E05E4CF59E8DF005F07401800225E0D5F0FBF45A
:20087D0052932274075FFD74075D4410FC74E05E4CF59E8DF005F07401800225E0D5F0FB96
:20089D00429322EF24F0500302091C900090E0FE30E04CEE30E11574075FF5F005F0740130
:2008BD00800225E0D5F0FBFD4290801474075FF5F005F07401800225E0D5F0FBF4FD52902E
:2008DD0074075FFD74075DFC74E05E4CF59F8DF005F07401800225E0D5F0FBF45294227420
:2008FD00075FFD74075D4410FC74E05E4CF59F8DF005F07401800225E0D5F0FB429422EFA9
:20091D0024E85003020998900090E0FE30E04CEE30E11574075FF5F005F07401800225E09A
:20093D00D5F0FBFD42A0801474075FF5F005F07401800225E0D5F0FBF4FD52A074075FFD3D
:20095D0074075DFC74E05E4CF5978DF005F07401800225E0D5F0FBF452952274075FFD74A6
:20097D00075D4410FC74E05E4CF5978DF005F07401800225E0D5F0FB429522EF24E140734E
:20099D00900090E0FE30E04CEE30E11574075FF5F005F07401800225E0D5F0FBFD42B080ED
:2009BD001474075FF5F005F07401800225E0D5F0FBF4FD52B074075FFD74075DFC74E05E46
:2009DD004CF58F8DF005F07401800225E0D5F0FBF452962253070774075F4410FD74E05EC0
:1409FD004DF58F8FF005F07401800225E0D5F0FBFF429622EC
:200A1100E582900093F0900092E0FF74024FF09000747492F07400A3F0E4A3F09000770412
:200A3100F0E4A3F07582001206C4E5AD30E3FB900092E0FF20E004C2E88016900093E0FF84
:170A5100600D20E80CD2E8900004120B668002C2E8900001020B660C
:200046007800E84400600A790175C900E4F309D8FC78A1E84400600C7901900001E4F0A3ED
:04006600D8FCD9FAEF
:200A68009000947470F09000747494F07400A3F0E4A3F090007704F0E4A3F0758207120674
:040A8800C4C2C12201
:200A8C00AFF0AE83E582900098F0EEA3F0EFA3F0900098E0FDA3E0FEA3E0FF900097E0FCED
:200AAC00900095E0FAA3E0FB78007900C3E89AE99B505FC002C003E82DF50EE93EF50F8FED
:200ACC0010850E82850F838510F0120BC4FBF582C007C006C005C004C003C002C001C000DA
:200AEC00120BB0858211D000D001D002D003D004D005D006D007D003D002EC600E850E8255
:130B0C00850F838510F0E511120BE408B8009D09809A22A1
:200B1F00AF83E58290009BF0EFA3F0741F55D1FF90009BE0FDA3E0FEFC74E05C4FF5D1E599
:130B3F00D28DD274FC55D3FF74035C4FF5D30000000022CF
:140B5200E58290009DF074F855ADFFE0FE74075E4FF5AD22D4
:200B6600AF83E58290009EF0EFA3F090009EE0FEA3E0FF90009EE0F5F0A3E045F07001226A
:200B86001EBEFF011F90009EEEF0EFA3F090009EE0FEA3E0FF7C007D00C3EC9EED9F50090D
:0A0BA60000000CBC00F30D80F022EB
:140BB000E5829000A0F0E0F5E7E5E630E2FBC2C085E7822284
:0D001100758111120BE0E582600302000E04
:1C0BC40020F71430F6148883A88220F507E6A88375830022E280F7E49322E02240
:040BE00075820022F8
:1B0BE40020F71130F6138883A88220F509F6A8837583002280FEF280F5F02210
:00000001FF
